{
  "_format": "hh-sol-artifact-1",
  "contractName": "AttackPreventReentrancy",
  "sourceName": "contracts/AttackPreventReentrancy.sol",
  "abi": [
    {
      "inputs": [
        {
          "internalType": "address",
          "name": "_preventReentrancy",
          "type": "address"
        }
      ],
      "stateMutability": "nonpayable",
      "type": "constructor"
    },
    {
      "stateMutability": "payable",
      "type": "fallback"
    },
    {
      "inputs": [],
      "name": "attack",
      "outputs": [],
      "stateMutability": "payable",
      "type": "function"
    },
    {
      "inputs": [],
      "name": "getBalance",
      "outputs": [
        {
          "internalType": "uint256",
          "name": "",
          "type": "uint256"
        }
      ],
      "stateMutability": "view",
      "type": "function"
    },
    {
      "inputs": [],
      "name": "preventReentrancy",
      "outputs": [
        {
          "internalType": "contract PreventReentrancyClone",
          "name": "",
          "type": "address"
        }
      ],
      "stateMutability": "view",
      "type": "function"
    }
  ],
  "bytecode": "0x608060405234801561001057600080fd5b506040516103ba3803806103ba8339818101604052602081101561003357600080fd5b8101908080519060200190929190505050806000806101000a81548173ffffffffffffffffffffffffffffffffffffffff021916908373ffffffffffffffffffffffffffffffffffffffff16021790555050610326806100946000396000f3fe6080604052600436106100385760003560e01c806312065fe01461011757806398c9fb44146101425780639e5faafc1461019957610039565b5b670de0b6b3a76400006000809054906101000a900473ffffffffffffffffffffffffffffffffffffffff1673ffffffffffffffffffffffffffffffffffffffff163110610115576000809054906101000a900473ffffffffffffffffffffffffffffffffffffffff1673ffffffffffffffffffffffffffffffffffffffff16632e1a7d4d670de0b6b3a76400006040518263ffffffff1660e01b815260040180828152602001915050600060405180830381600087803b1580156100fc57600080fd5b505af1158015610110573d6000803e3d6000fd5b505050505b005b34801561012357600080fd5b5061012c6101a3565b6040518082815260200191505060405180910390f35b34801561014e57600080fd5b506101576101ab565b604051808273ffffffffffffffffffffffffffffffffffffffff1673ffffffffffffffffffffffffffffffffffffffff16815260200191505060405180910390f35b6101a16101d0565b005b600047905090565b6000809054906101000a900473ffffffffffffffffffffffffffffffffffffffff1681565b6000809054906101000a900473ffffffffffffffffffffffffffffffffffffffff1673ffffffffffffffffffffffffffffffffffffffff1663d0e30db0670de0b6b3a76400006040518263ffffffff1660e01b81526004016000604051808303818588803b15801561024157600080fd5b505af1158015610255573d6000803e3d6000fd5b50505050506000809054906101000a900473ffffffffffffffffffffffffffffffffffffffff1673ffffffffffffffffffffffffffffffffffffffff16632e1a7d4d670de0b6b3a76400006040518263ffffffff1660e01b815260040180828152602001915050600060405180830381600087803b1580156102d657600080fd5b505af11580156102ea573d6000803e3d6000fd5b5050505056fea26469706673582212209f525f5fc79cd8639969e043e270f6ede0e1941fc2e86193bcbdd899bc289d3664736f6c634300060a0033",
  "linkReferences": {},
  "deployedLinkReferences": {}
}